:100000000C94FF000C9427010C9427010C942701F9
:100010000C9427010C9427010C9427010C942701C0
:100020000C9427010C9427010C94DA040C9492058B
:100030000C9427010C9427010C9427010C942701A0
:100040000C9427010C9427010C9427010C94270190
:100050000C94D0070C9427010C9427010C944D09A3
:100060000C9427010C9427010C9427010C94270170
:100070000C9427010C9427010C9427010C94270160
:100080000C9427010C9427010C9427010C94270150
:100090000C9427010C9427010C9427010C94270140
:1000A0000C9427010C9427010C942701DB08DE082F
:1000B000CD08D108D508FF08FF08FF08E208E608C8
:1000C000EA08F008F408FF08FA08080B0002020228
:1000D00001000904000001020200000524001001D3
:1000E0000524010101042402060524060001070578
:1000F000810310004009040100020A000000070506
:1001000002024000000705830240000004030904C6
:1001100012010002EF02014041233680000101027A
:10012000030141726475696E6F204C4C430041724B
:100130006475696E6F204C656F6E6172646F00004C
:10014000000000250028002B002E003100000000D8
:1001500000240027002A002D0030000000000023AA
:1001600000260029002C002F0004040404040304CA
:100170000502020202040302020202060606060645
:100180000604040202020404040802011040804034
:1001900010204080408008020401804020100201AD
:1001A000108010204040200000000200090F0000D5
:1001B000030401000C00000000000000000000002B
:1001C00000000000000005010902A1010901A100D1
:1001D00085010509190129031500250195037501FC
:1001E000810295017505810305010930093109383E
:1001F0001581257F750895038106C0C0A40B1124C5
:100200001FBECFEFDAE0DEBFCDBF11E0A0E0B1E06E
:10021000E0E1FBE102C005900D92AA36B107D9F7E3
:1002200022E0AAE6B1E001C01D92AB30B207E1F7CF
:1002300010E0CFEFD0E004C02197FE010E945A0CDD
:10024000CE3FD107C9F70E9497090C94860D0C94F4
:100250000000409178015091790120917601309110
:10026000770142175307B4F49091E8009570E1F3D9
:100270009091E80092FD19C08093F100809178017F
:100280009091790101968F739927892B19F48EEF3C
:100290008093E80080917801909179010196909384
:1002A00079018093780181E0089580E00895DF92DC
:1002B000EF92FF920F931F93CF93DF93D82EF92ED7
:1002C000E42E062F10E0C8010196880F0E94290134
:1002D00083E00E942901CD2DDF2D0C0F1D1FC017BB
:1002E000D10789F0E7FE03C0FE01849101C0888137
:1002F0000E942901F82E80E00E9429018F21219679
:100300008111EDCF01C081E0DF91CF911F910F915D
:10031000FF90EF90DF900895DF92EF92FF920F939E
:100320001F93CF93DF93D82E8A017B01E40EF51E35
:10033000EB01CE15DF0571F0D7FE03C0FE018491FD
:1003400001C088810E94290121968111F2CF8FEF8F
:100350009FEF01C0C801DF91CF911F910F91FF90D6
:10036000EF90DF9008952FB7F89487708093E9009D
:100370009091E800892F807295FF04C09091F2005F
:1003800080E4891B2FBF0895615030F02091F10067
:10039000FC0120830196F8CF289884E68093880199
:1003A0000895CF92DF92EF92FF920F931F93CF9316
:1003B000DF936C017A018B01C0E0D0E0CE15DF0540
:1003C00081F0D8016D918D01D601ED91FC910190E4
:1003D000F081E02DC6010995892B11F02196EECF11
:1003E0007E01C701DF91CF911F910F91FF90EF9098
:1003F000DF90CF900895CF93DF931F92CDB7DEB7F4
:100400006983DC01ED91FC910280F381E02D41E0F4
:1004100050E0BE016F5F7F4F09950F90DF91CF9144
:10042000089583E08093E9008091F200882319F019
:100430008AE38093E800089583E00E94B30190E08E
:100440000895FC018485958597FD0BC09FB7F894AE
:1004500082E08093E9008091F2009FBF90E00196D6
:1004600008959FB7F89482E08093E9008091F200AC
:100470009FBF90E00895089580E090E00895DC012A
:10048000FB0112968C91129790E02481358182179E
:100490009307D1F491818081813A31F481E09130E8
:1004A00091F0933089F411C0813271F49B3021F4C2
:1004B00082811F968C9305C09A3031F482815096C8
:1004C0008C9381E00895089580E00895DC01FB019C
:1004D00088E4808389E4818384E482831D969C91EF
:1004E0001D979F709F5B93831D968D919C911E9786
:1004F00024E0969587952A95E1F78F708F5B84832A
:1005000085E00895EF92FF920F931F93CF93DF93AF
:10051000FB012081213851F52381223239F5DC019C
:1005200012962C9130E04481558142175307F1F423
:10053000EC010B851C85E12CF12C0115110591F0C6
:10054000F801448155816281738180E80E948C01A9
:100550008F3FFFEF9F0769F0E80EF91ED8010D915C
:100560001C91EBCF81E08F87C70105C080E090E050
:1005700002C08FEF9FEFDF91CF911F910F91FF90FE
:10058000EF900895CF93DF93CDB7DEB769970FB69D
:10059000F894DEBF0FBECDBFFC01DB018C918F5FF5
:1005A0008C93BE016F5F7F4F89E1DB011D928A95BD
:1005B000E9F729E0298384E08A8391E09D8383E041
:1005C0008E832A8721E22B879C879D879F8722E243
:1005D000288B27E02B8B25E02C8B8E8B20E430E0C2
:1005E000388F2F8B998F82818B8395858685998B08
:1005F0008A8B838180688D8B49E150E080E00E9486
:100600008C0169960FB6F894DEBF0FBECDBFDF91A7
:10061000CF910895FC0182818F5BFB01808381E093
:100620000895CF92DF92EF92FF920F931F93CF9393
:10063000DF93C0918201D09183018FB7F894C0906D
:100640008401D0908501E0908601F09087018FBFF2
:100650008D85882359F08B859C8502979C878B8795
:100660008B859C8597FF02C01C861B8688810E9413
:10067000B1082B8130E08217930711F413E001C019
:1006800010E089810E94B1082B8130E08217930726
:1006900011F481E0182788859985811B4D8580FF9D
:1006A0001FC0212F110F330B398728872C813D81E3
:1006B0008270082E000C990BBC0161507109260F45
:1006C000371F3D832C834423D9F02E813F8182172D
:1006D000930709F475C09F838E831C861B8670C0A8
:1006E00080E0442369F0882359F08B859C85833A08
:1006F0009E4130F48B859C85825A9E4F9C878B87C8
:100700008A81882309F45EC04C895D896E897F895E
:1007100097018601041B150B260B370B0A301105B8
:100720002105310508F44EC0CC8ADD8AEE8AFF8AA5
:100730000E94B1082B8130E08217930761F4898908
:100740009A8901969A8B898B8937910520F083E0ED
:1007500090E09F878E878A810E94B1083B8121E0CB
:10076000232730E082179307F9F489899A89892B26
:10077000C9F08E859F85039719F484E090E007C047
:100780008B89823040F08C3368F486E090E09F875C
:100790008E871B8A07C08889811102C081E001C051
:1007A0008CE38B8B1A8A198A8B89882359F08250A3
:1007B0008B8B811107C085E090E09F878E8702C0F8
:1007C00081E08FCFDF91CF911F910F91FF90EF903C
:1007D000DF90CF9008957F928F929F92AF92BF92B9
:1007E000CF92DF92EF92FF920F931F93CF93DF93FD
:1007F000C82E8B017A0180918901811103C08FEF8E
:100800009FEF70C080917C0180FF05C08091E00067
:1008100082608093E000CE2DDF2DD12C8AEFB82EA0
:100820008C2D8770982E8C2D8072882E8C2D807444
:10083000782E9AE3A92E209719F4DD2009F44DC0F3
:100840008C2D0E94B301811106C0BA94BB20B9F26D
:100850000E942E08F0CF282F30E0C217D3070CF4E7
:100860008C2F9FB7F8949092E9002091E80025FF23
:1008700032C0282F30E0C21BD30B882029F08150D2
:10088000A0F01092F100FBCFF801C7FE0AC0815022
:1008900050F044914093F1003196F9CF419140934B
:1008A000F1008150D8F7020F131FDD2019F0A0923C
:1008B000E8000AC08091E80085FD08C0A092E80029
:1008C000DD24D394209739F0D12C05C0209719F45A
:1008D0007110A092E8009FBFAECF5D9884E6809330
:1008E0007B01C701DF91CF911F910F91FF90EF9096
:1008F000DF90CF90BF90AF909F908F907F900895A2
:10090000CF93DF93EC0180910B01882331F083E0DA
:100910000E94EB031816190634F081E090E09B83E7
:100920008A8380E090E0DF91CF9108950E94810D4D
:100930000F931F93CF93DF931F92CDB7DEB78C0138
:10094000FC018485958597FF0EC0CE0101960E941B
:100950008308019719F4898190E002C08FEF9FEF1F
:10096000F80195878487F801848595850F90DF913C
:10097000CF911F910F910895CF93DF931F92CDB721
:10098000DEB7FC018485958597FD05C02FEF3FEF0D
:10099000358724870BC0CE0101960E9483080197FA
:1009A00019F4898190E002C08FEF9FEF0F90DF91E3
:1009B000CF9108951F920F920FB60F9211248F932B
:1009C0009F938091E1009091E100937F9093E100EB
:1009D00083FF0FC01092E90091E09093EB0010921A
:1009E000EC0092E39093ED001092890198E09093CF
:1009F000F00082FF20C093E09093E9009091F20014
:100A0000992319F09AE39093E80090917B01992340
:100A100039F090917B01915090937B01992389F15A
:100A200090918801992339F0909188019150909389
:100A30008801992341F184FF10C08091E2008E7EED
:100A400081608093E2008091E1008F7E8093E100DD
:100A500080917C018E7E806111C080FF16C08091E4
:100A6000E2008E7E80618093E2008091E1008E7EC4
:100A70008093E10080917C018E7E816080937C0177
:100A800004C05D9ACDCF289AD6CF9F918F910F90B9
:100A90000FBE0F901F90189580916E0181110DC0AF
:100AA00082E080936A0184E080936B0110926D0173
:100AB00010926C0181E080936E018AE691E00895C6
:100AC0000F931F93CF93DF931F92CDB7DEB782E0D2
:100AD000898342E450E06AEC70E080E80E948C0177
:100AE0000E944C05DC0112960D911C911397011583
:100AF000110589F0D801ED91FC910280F381E02D80
:100B0000BE016F5F7F4FC801099597FD04C0F801D2
:100B100000851185ECCF89810F90DF91CF911F91D6
:100B20000F9108951F920F920FB60F921124CF923A
:100B3000DF92EF92FF920F931F932F933F934F9368
:100B40005F936F937F938F939F93AF93BF93EF9335
:100B5000FF93CF93DF93CDB7DEB76C97DEBFCDBFEA
:100B60001092E9008091E80083FFFBC168E0CE01AC
:100B700045960E94C40182EF8093E8008D8987FF2B
:100B800005C09091E80090FFFCCF03C09EEF9093CA
:100B9000E800982F907609F0C6C09E894F89588D3D
:100BA0002F89F88C91110CC0803829F480917D0137
:100BB0008093F10002C01092F1001092F10045C143
:100BC000913051F4811141C14130510509F03DC1CD
:100BD00080917D018D7F0BC0933061F4811135C10F
:100BE0004130510509F031C180917D0182608093CF
:100BF0007D012BC1953049F48091E80080FFFCCF46
:100C0000822F80688093E30020C1963009F05EC097
:100C10000B8D1C8D22E01092E90010927901109248
:100C20007801F21232C010927701109276010E9480
:100C3000600599E0BE016F5F7F4FDB01E92F1D92D8
:100C4000EA95E9F79983FA8291E09E8390EA988782
:100C50009AEF99872091780130917901275F3F4F72
:100C60003C832B838D831092E900109279011092BE
:100C70007801109377010093760149E050E080E01D
:100C80000E948C010E946005E0C0109377010093E0
:100C900076010E944C05DC0112960D911C91139770
:100CA0000115110509F4BBC0D801ED91FC91048038
:100CB000F581E02DBE016B5E7F4FC801099500975D
:100CC00009F0C7C0F80100851185EACF973009F413
:100CD00045C1983021F481E08093F100B6C099308D
:100CE00009F0B3C0837009F039C1EDE0F1E081E0B3
:100CF00031E096E32081211109C08EE78093EA005C
:100D00001092EA008F89809389019FC08093E90047
:100D10003093EB0021912093EC009093ED008F5FD6
:100D2000873041F7EACF8B8D9C8D1092E9001092AD
:100D30007901109278019093770180937601898DE3
:100D4000811153C08E899D89913A49F4813209F00D
:100D500005C147E050E064E071E080E0BBC0913243
:100D600009F0FCC0833269F48F89988DA0E0B0E06F
:100D70008093000190930101A0930201B0930301BD
:100D800064C0803269F48091E80082FFFCCF67E0A4
:100D900084E091E00E94C4018BEF8093E80055C08D
:100DA000823209F052C08F8980930B01EEEFFFE78A
:100DB000859194918B3F9C4D19F0E0E0F8E002C0E2
:100DC000EEEFFAE08091040190910501A0910601F7
:100DD000B0910701803B9440A105B10509F09EC088
:100DE00080910B0180FF79C099C00E944C05FC01E5
:100DF000028113810115110509F4B0C0D801ED91EC
:100E0000FC910190F081E02DBE016B5E7F4FC80127
:100E1000099581111AC0F80100851185EBCFF1E029
:100E2000FF1609F44EC0F3E0FF1298C08F898823A3
:100E300009F44AC0823089F440E860E18EE291E032
:100E40000E945701882309F489C08EEF8093E8003F
:100E500088C018161906CCF381C0813029F440E807
:100E60006BE082E291E0ECCF833009F077C00E9422
:100E70004C05DC011296ED90FC9013978E010F5FEC
:100E80001F4F6801E114F10479F0D701ED91FC9155
:100E90000680F781E02DB801C7010995080F111DE3
:100EA000F701E084F184EECFD8011C92F6010190A5
:100EB0000020E9F73197BF016C197D0940E0C601B8
:100EC000BFCF60E171E002C06CE071E0FB014491D2
:100ED00050E080E80E948C01B8CFEE3F2AE0F20794
:100EE00051F0808191818737A7E79A0721F090938D
:100EF000FF0A8093FE0A87E797E7918380838091BA
:100F0000600080937A019BE088E10FB6F894A89581
:100F1000809360000FBE9093600097CF8081918195
:100F20008737974709F091CFA89580916000886135
:100F30008093600080917A0180936000EE3FBAE078
:100F4000FB0739F08091FE0A9091FF0A918380831C
:100F50007CCF1092FF0A1092FE0A77CF81E2809335
:100F6000EB006C960FB6F894DEBF0FBECDBFDF91DD
:100F7000CF91FF91EF91BF91AF919F918F917F9111
:100F80006F915F914F913F912F911F910F91FF9022
:100F9000EF90DF90CF900F900FBE0F901F9018959D
:100FA0001F920F920FB60F9211242F933F934F93DE
:100FB0005F936F937F938F939F93AF93BF93EF93C1
:100FC000FF93E0917E01F0917F010995FF91EF91F0
:100FD000BF91AF919F918F917F916F915F914F9151
:100FE0003F912F910F900FBE0F901F9018953FB714
:100FF000F8948091F5019091F601A091F701B091DC
:10100000F80126B5A89B05C02F3F19F00196A11D38
:10101000B11D3FBFBA2FA92F982F8827820F911D8E
:10102000A11DB11DBC01CD0142E0660F771F881FD5
:10103000991F4A95D1F70895009769F0FC01019036
:101040000020E9F73197AF01481B590BBC018AE832
:1010500091E00C94800480E090E00895CF92DF92BC
:10106000EF92FF920E94F7076B017C010E94F70745
:10107000DC01CB018C199D09AE09BF09883E934064
:10108000A105B10598F3FF90EF90DF90CF90089500
:10109000FC01A281B381109729F48AED91E093833A
:1010A00082830EC018968D919C911997009711F02C
:1010B000DC01F8CF8AED91E019969C938E931897F6
:1010C00080818093DC0181818093DD01908180911A
:1010D000DF01890F808380E09091DE01891788F419
:1010E000A091E001B091E101A80FB11D9C91A181F7
:1010F000B0E0A45FBE4F9C9391819F5F91838F5F0F
:10110000EBCF81E0089520918901211103C08FEF79
:101110009FEF08955FB7F89422E02093E9002091B3
:10112000F20030E01216130614F421E030E0422FF2
:10113000FC0184E6415038F0289880938801909112
:10114000F1009193F7CF2115310521F08091F20044
:10115000882319F05FBFC90108958BE68093E800EA
:10116000F9CF90E0FC01E955FE4F4491FC01E857AE
:10117000FE4F2491FC01E759FE4F8491882309F426
:101180004DC04423E1F150E0FA013197EF30F10511
:10119000B0F5EA5AFF4F0C945A0C909180009F775B
:1011A00007C0909180009F7D03C090918000977F41
:1011B0009093800024C094B59F7702C094B59F7D22
:1011C00094BD1DC0909190009F7707C090919000B2
:1011D0009F7D03C090919000977F909390000FC0E7
:1011E0009091C0009F7703C09091C0009F7D909325
:1011F000C00005C09091C200977F9093C200E82F75
:10120000F0E0EE0FFF1FE55AFE4FA591B491EC916F
:10121000E22381E090E021F480E0089580E090E016
:101220000895CF93DF9390E0FC01E857FE4F24919F
:10123000FC01E759FE4F8491882361F190E0880F0B
:10124000991FFC01E35BFE4FC591D491FC01E15C69
:10125000FE4FA591B491611109C09FB7F8948881A0
:10126000209582238883EC912E230BC0623061F499
:101270009FB7F8948881322F309583238883EC912F
:101280002E2B2C939FBF06C08FB7F894E8812E2B8E
:1012900028838FBFDF91CF9108951F920F920FB6D1
:1012A0000F9211242F933F938F939F93AF93BF93EC
:1012B0008091840190918501A0918601B091870170
:1012C0003091F40123E0230F2D3720F40196A11D66
:1012D000B11D05C026E8230F0296A11DB11D209364
:1012E000F4018093840190938501A0938601B093CB
:1012F00087018091F5019091F601A091F701B091DD
:10130000F8010196A11DB11D8093F5019093F6019E
:10131000A093F701B093F801BF91AF919F918F9186
:101320003F912F910F900FBE0F901F901895CF9364
:10133000DF93CDB7DEB7A2970FB6F894DEBF0FBE2E
:10134000CDBF789484B5826084BD84B5816084BD4E
:1013500085B5826085BD85B5816085BD80916E0053
:10136000816080936E001092810080918100826084
:1013700080938100809181008160809381008091C1
:1013800080008160809380008091910082608093D2
:1013900091008091910081608093910080919000F4
:1013A0008160809390008091C10084608093C1002F
:1013B0008091C10082608093C1008091C1008160F2
:1013C0008093C1008091C30081608093C3008091AD
:1013D000C00082608093C0008091C20081608093D1
:1013E000C20080917A00846080937A0080917A00B4
:1013F000826080937A0080917A00816080937A0085
:1014000080917A00806880937A001092890110920E
:101410007D0110927C018091D70081608093D7007C
:1014200080EA8093D80089B5806189BD89B58260E2
:1014300089BD09B400FEFDCF0E942E088091D8001E
:101440008F7C80618093D8008091E000807F8093C2
:10145000E0008091E1008E7E8093E1008DE080933A
:10146000E200559A209A8EE090E00E94600C8C0178
:1014700082E0F801808383E0818384E082831382A9
:101480001582148281E090E097838683118610860E
:10149000828714861386858717861686808B128A24
:1014A000118A138A148A158A168A178A62E082E0E2
:1014B0000E94110962E0F80181810E94110962E035
:1014C000F80182810E941109F80180810E94B1080F
:1014D000F801238130E08217930721F483E090E044
:1014E00091878087F80181810E94B108F8012381EA
:1014F00030E08217930739F480859185F1E08F27DA
:10150000F80191878087109383010093820181E025
:10151000F801858790E1909381001092800020E48B
:101520003FE1309387002093860091E19093810002
:1015300021E133E030937F0120937E0180936F009F
:1015400010928101109280018FEF9FEF909397018D
:101550008093960183E491E00E941C0887E591E066
:101560000E941C087AE0472E512C612C712CE4EE6D
:101570002E2EE1E03E2EFF24F39451ECE52E60E0A8
:10158000C62E60E0D62EE0918201F0918301F8949E
:10159000848195812285223021F49C01217033279A
:1015A00005C0243031F49C01237033273583248314
:1015B00002C01582148278942285243029F49595EE
:1015C00087959595879504C0223011F49595879558
:1015D0002585222329F003851485012F112702C0B8
:1015E00000E010E097FF03C00095109507C0892B1D
:1015F00019F00F5F1F4F02C000E010E0109381014F
:10160000009380010115110509F497C08091F30141
:1016100089830A831B821C828091EB01811130C077
:10162000F092DE01F092DF013092E1012092E001C0
:101630001092E3011092E2018FE291E09093DB01BE
:101640008093DA011092E6011092E5011092E80110
:101650001092E701F092E901F092EA01E092E401D0
:101660000E944C05FC0141812091DE0130E0240FF5
:10167000311D2830310514F40E944808F092EB0126
:10168000FAA241E050E0BE016E5D7F4F8091DD0126
:101690000E94EB0397FD0AC08091DD0144E050E019
:1016A000BE016F5F7F4F80640E94EB038AE591E08B
:1016B0000E941C084801012E000CAA08BB0817FF55
:1016C00020C06DE28AE891E00E94FB0122273327C7
:1016D000A901281939094A095B0919A28E010F5D70
:1016E0001F4FCA01B901A30192010E94380C605D2D
:1016F000F80162938F01211531054105510589F7E4
:1017000015C0A501940119A28E010F5D1F4FCA01DA
:10171000B901A30192010E94380C605DF801629347
:101720008F01211531054105510589F7C8010E9436
:101730001C0887E591E00E941C08C114D10409F43B
:1017400022CF0E94000017CF10928D0110928C01C1
:1017500088EE93E0A0E0B0E080938E0190938F013B
:10176000A0939001B09391018DE191E090938B0152
:1017700080938A018FEF9FEF90939701809396015A
:101780001092F3018091FF01811113C01092FA01B0
:101790001092F90186EC91E09093FC018093FB019B
:1017A00086E390E09093FE018093FD0181E08093B9
:1017B000FF018091EB01811135C081E08093DE0152
:1017C0008093DF0124EE31E03093E1012093E001CA
:1017D0001092E3011092E2012FE231E03093DB013D
:1017E0002093DA011092E6011092E5011092E801CF
:1017F0001092E7018093E9018093EA0181EC8093E4
:10180000E4010E944C05FC0141812091DE0130E0A1
:10181000240F311D2830310514F40E94480881E05E
:101820008093EB01E091E501F091E601309739F406
:1018300089EF91E09093E6018093E5010AC08081F1
:101840009181009711F0FC01FACF89EF91E091832B
:1018500080832091E7013091E8018091FD01909112
:10186000FE01820F931F9093E8018093E701089592
:10187000A1E21A2EAA1BBB1BFD010DC0AA1FBB1F94
:10188000EE1FFF1FA217B307E407F50720F0A21B06
:10189000B30BE40BF50B661F771F881F991F1A9473
:1018A00069F760957095809590959B01AC01BD019D
:1018B000CF010895EE0FFF1F0590F491E02D0994DC
:1018C0000F931F93CF93DF938230910510F482E042
:1018D00090E0E0910902F0910A0220E030E0A0E0FF
:1018E000B0E0309719F1408151810281138148178E
:1018F0005907C8F08417950769F4109731F01296CC
:101900000C93129713961C9327C00093090210930F
:101910000A0222C02115310519F04217530718F4A5
:101920009A01BD01EF01DF01F801DBCF211531057F
:10193000F9F0281B390B2430310580F48A819B8112
:101940006115710521F0FB019383828304C090939C
:101950000A0280930902FE01329644C0FE01E20FA2
:10196000F31F8193919322503109398328833AC020
:101970002091070230910802232B41F42091150198
:101980003091160130930802209307022091130131
:10199000309114012115310541F42DB73EB7409126
:1019A000170150911801241B350BE0910702F091AB
:1019B0000802E217F307A0F42E1B3F0B2817390784
:1019C00078F0AC014E5F5F4F2417350748F04E0F9B
:1019D0005F1F50930802409307028193919302C0C6
:1019E000E0E0F0E0CF01DF91CF911F910F910895DA
:1019F000CF93DF93009709F481C0FC0132971382E3
:101A00001282A0910902B0910A02109781F42081FC
:101A10003181820F931F209107023091080228170D
:101A2000390751F5F0930802E093070267C0ED0112
:101A300020E030E0CE17DF0740F44A815B819E0151
:101A400041155105F1F0EA01F5CFD383C2834081FE
:101A50005181840F951FC817D90759F4888199813E
:101A6000840F951F0296918380838A819B81938343
:101A700082832115310529F4F0930A02E0930902CB
:101A80003DC0E901FB83EA8349915991C40FD51FF9
:101A9000EC17FD0761F480819181840F951F0296F8
:101AA000E90199838883828193819B838A83E0E023
:101AB000F0E012968D919C911397009719F0FD011B
:101AC000DC01F7CF8D919C9111979D012E5F3F4FC7
:101AD000820F931F209107023091080228173907BF
:101AE00069F4309729F410920A021092090202C098
:101AF00013821282B0930802A0930702DF91CF9164
:101B0000089581E090E0F8940C94860DF894FFCF4E
:101B1000FFFFFFFF00E100000000000000C1808126
:101B200000000000000B02800000000000FB0180AC
:101B3000041C0211022102BC049804000000003FB2
:101B400002C2028202660200000000960496049619
:101B5000040A03417264757370696E6E6572205376
:101B6000746172746564000D0A00456E636F64658C
:0A1B7000722056616C75653A200082
:00000001FF
